:100000000C943E000C9453000C9453000C94530039
:100010000C9453000C9453000C9453000C94530014
:100020000C9453000C9453000C9453000C94530004
:100030000C9453000C9453000C9453000C945300F4
:100040000C9453000C9453000C9453000C945300E4
:100050000C9453000C9453000C9453000C945300D4
:100060000C9453000C9453000C9453000C945300C4
:100070000C9453000C9453000C94530011241FBE95
:10008000CFEFD0E1DEBFCDBF11E0A0E0B1E0E2ED07
:10009000F0E002C005900D92AA30B107D9F70E9496
:1000A00055000C9467000C94000017B88FEF81B9CD
:1000B000379BFECF9F5F9B3008F090E03799FECFD3
:1000C000E92FF0E0E050FF4F808182B9F1CFF89442
:0200D000FFCF60
:0A00D200FC60DAF266B6BEE4FEF64A
:00000001FF
