:100000000C943E000C9453000C9453000C94530039
:100010000C9453000C9453000C9453000C94530014
:100020000C9453000C9453000C9453000C94530004
:100030000C9453000C9453000C9453000C945300F4
:100040000C9453000C9453000C9453000C945300E4
:100050000C9453000C9453000C9453000C945300D4
:100060000C9453000C9453000C9453000C945300C4
:100070000C9453000C9453000C94530011241FBE95
:10008000CFEFD0E1DEBFCDBF11E0A0E0B1E0E8E30B
:10009000F1E002C005900D92AA30B107D9F70E9495
:1000A00055000C949A000C94000017B88FEF88B993
:1000B00081B9A6B1A27076B1717036B1327066B1F5
:1000C00061703A17B9F086B1432F50E090E081702B
:1000D00090708417950711F02F5FA32F86B190E0E1
:1000E000817090708417950711F42150A32F2A3046
:1000F00008F020E06717B9F086B1462F50E090E095
:10010000827090708417950711F02150762F86B178
:1001100090E0827090708417950711F42F5F762F0E
:100120002A3008F020E0E22FF0E0E050FF4F80811D
:0801300082B9C3CFF894FFCFA0
:0A013800FC60DAF266B6BEE4FEF6E3
:00000001FF
