:100000000C943E000C945B000C945B000C945B0021
:100010000C945B000C945B000C945B000C945B00F4
:100020000C945B000C945B000C945B000C945B00E4
:100030000C945B000C945B000C945B000C945B00D4
:100040000C945B000C945B000C945B000C945B00C4
:100050000C945B000C945B000C945B000C945B00B4
:100060000C945B000C945B000C945B000C945B00A4
:100070000C945B000C945B000C945B0011241FBE7D
:10008000CFEFD0E1DEBFCDBF11E0A0E0B1E0EEECFC
:10009000F1E002C005900D92AC31B107D9F711E043
:1000A000ACE1B1E001C01D92A232B107E1F70E94BC
:1000B00095000C94E5000C9400001F93182F8A30D3
:1000C00019F48DE00E945D008091C00085FFFCCF97
:1000D0001093C600212F332727FD3095C9011F91AA
:1000E00008958091C00087FFFCCF8091C60090E00A
:1000F00008951092C5008DE48093C40088E1809338
:10010000C10086E08093C2008EE091E090931F01D1
:1001100080931E01909321018093200180E091E063
:1001200090931D0180931C0108951F930E94D3009A
:1001300080E00E94B90080E00E94AF0010E005C09E
:100140000E94CB000E94C3001F5F1F3FC9F780E0E1
:100150000E94B90080E00E94AF0010E0F1CF1F9331
:10016000182F80E10E94DB00812F0E94DB001F918D
:1001700008951F93182F80E00E94DB00812F0E94BA
:10018000DB001F91089584E10E94DB00089588E15F
:100190000E94DB00089584E00E94DB00089588E05F
:1001A0000E94DB0008950E94D600089580EB84B978
:1001B00081E58CBD08958EBD0DB407FEFDCF089579
:0E01C0000DB407FEFDCF8EB50895F894FFCF65
:1001CE0000000001000000000000710000000000AF
:0C01DE000002000000005D0000000000B6
:00000001FF
