:100000000C943E000C9453000C9453000C94530039
:100010000C9453000C9453000C9453000C94530014
:100020000C9453000C9453000C9453000C94530004
:100030000C9453000C9453000C9453000C945300F4
:100040000C9453000C9453000C9453000C945300E4
:100050000C9453000C9453000C9453000C945300D4
:100060000C9453000C9453000C9453000C945300C4
:100070000C9453000C9453000C94530011241FBE95
:10008000CFEFD0E1DEBFCDBF11E0A0E0B1E0E4E111
:10009000F1E002C005900D92AA30B107D9F70E9495
:1000A00055000C9488000C94000017B88FEF81B9AC
:1000B00086B182706CE271E056B152705817F9F057
:1000C00086B190E081709070252F30E08217930701
:1000D00051F0109A88EE93E0FB013197F1F7019708
:1000E000D9F74F5F09C0109A88EE93E0FB01319772
:1000F000F1F70197D9F741504B3008F040E0E42F79
:10010000F0E0E050FF4F808182B91098852FD4CF66
:04011000F894FFCF91
:0A011400FC60DAF266B6BEE4FEF607
:00000001FF
