:100000000C943E000C9453000C9453000C94530039
:100010000C9453000C9453000C9453000C94530014
:100020000C9453000C9453000C9453000C94530004
:100030000C9453000C9453000C9453000C945300F4
:100040000C9453000C9453000C9453000C945300E4
:100050000C9453000C9453000C9453000C945300D4
:100060000C9453000C9453000C9453000C945300C4
:100070000C9453000C9453000C94530011241FBE95
:10008000CFEFD0E1DEBFCDBF11E0A0E0B1E0ECEDFD
:10009000F0E002C005900D92AA30B107D9F70E9496
:1000A00055000C946C000C9400008FEF81B920E097
:1000B0004CE251E0E22FF0E0E050FF4F808182B946
:1000C00080E197E2FA013197F1F70197D9F72F5FB5
:0C00D0002A3080F320E0EECFF894FFCF40
:0A00DC00FC60DAF266B6BEE4FEF640
:00000001FF
