:100000000C943E000C945B000C945B000C945B0021
:100010000C945B000C945B000C945B000C945B00F4
:100020000C945B000C945B000C945B000C945B00E4
:100030000C945B000C9495000C945B000C945B009A
:100040000C945B000C945B000C945B000C945B00C4
:100050000C945B000C945B000C945B000C945B00B4
:100060000C945B000C945B000C945B000C945B00A4
:100070000C945B000C945B000C945B0011241FBE7D
:10008000CFEFD0E1DEBFCDBF11E0A0E0B1E0E2EA0A
:10009000F1E002C005900D92A632B107D9F711E048
:1000A000A6E2B1E001C01D92AD32B107E1F70E94B6
:1000B000AC000C94CF000C9400001F93182F8A30D2
:1000C00019F48DE00E945D008091C00085FFFCCF97
:1000D0001093C600212F332727FD3095C9011F91AA
:1000E00008958091C00087FFFCCF8091C60090E00A
:1000F00008951092C5008DE48093C40088E1809338
:10010000C10086E08093C20088E191E090932A01CB
:100110008093290190932C0180932B018AE091E038
:10012000909328018093270108951F920F920FB694
:100130000F9211248F9380912601893011F480E071
:1001400003C0809126018F5F809326018F910F90CD
:100150000FBE0F901F901895279A0E9479008FEF7D
:1001600081B91092800088E08093810080918100A5
:1001700085608093810086EC9DE290938900809356
:10018000880080916F00826080936F007894E09186
:100190002601F0E0E050FF4F808182B9F8CFF8945B
:0201A000FFCF8F
:1001A200FC60DAF266B6BEE4FEF600000001000072
:1001B20000000000710000000000000200000000CA
:0601C2005D0000000000DA
:00000001FF
