:100000000C943E000C9453000C9453000C94530039
:100010000C9453000C9453000C9453000C94530014
:100020000C9453000C9453000C9453000C94530004
:100030000C9453000C9453000C9453000C945300F4
:100040000C9453000C9453000C9453000C945300E4
:100050000C9453000C9453000C9453000C945300D4
:100060000C9453000C9453000C9453000C945300C4
:100070000C9453000C9453000C94530011241FBE95
:10008000CFEFD0E1DEBFCDBF11E0A0E0B1E0E6EE02
:10009000F0E002C005900D92AA30B107D9F70E9496
:1000A00055000C9471000C94000017B88FEF81B9C3
:1000B00020E04CE251E0369BFECF88EE93E0FA015F
:1000C0003197F1F70197D9F72F5F2A3008F020E038
:1000D0003699FECFE22FF0E0E050FF4F808182B9E9
:0600E000EACFF894FFCF07
:0A00E600FC60DAF266B6BEE4FEF636
:00000001FF
