:100000000C942C010C9449010C9449010C94490165
:100010000C9449010C9449010C9449010C94490138
:100020000C9449010C9449010C9449010C94490128
:100030000C9449010C9449010C9449010C94490118
:100040000C9449010C9449010C9449010C94490108
:100050000C9449010C9449010C9449010C944901F8
:100060000C9449010C9449010C9449010C944901E8
:100070000C9449010C9449010C94490100000000C2
:100080000000005F00000003000300143E143E1453
:10009000242A7F2A124333086661364955225000CC
:1000A00005030000001C2241000041221C0014082E
:1000B0003E081408083E08080050300000080808F0
:1000C0000808006060000020100804023E51494505
:1000D0003E0004027F0042615149462241494936AF
:1000E0001814127F1027454545393E4949493201C8
:1000F000017109073649494936264949493E0036C2
:100100003600000056360000081422410014141472
:100110001414004122140802015109063E415955A8
:100120005E7E0909097E7F494949363E41414122A7
:100130007F4141413E7F494949417F090909013ECB
:100140004141493A7F0808087F00417F4100304023
:1001500040403F7F081422417F404040407F020CD6
:10016000027F7F0204087F3E4141413E7F09090929
:10017000061E2121215E7F09090976264949493257
:1001800001017F01013F4040403F1F2040201F7F71
:100190002010207F41221C2241070870080761516E
:1001A000494543007F41000002040810200000413F
:1001B0007F0004020102044040404040000102046C
:1001C0000020545454787F444444383844444444D0
:1001D000384444447F385454541804047E050508B8
:1001E0005454543C7F0804047800447D400020406F
:1001F000443D007F1028440000417F40007C04788B
:1002000004787C0804047838444444387C1414147A
:1002100008081414147C007C080404485454542026
:1002200004043F44443C4040207C1C2040201C3CB3
:100230004030403C44281028440C5050503C44640A
:10024000544C44000836414100007F0000414136D3
:10025000080002010204020011241FBECFEFD0E10A
:10026000DEBFCDBF11E0A0E0B1E0E2E7F7E202C0FF
:1002700005900D92A837B107D9F711E0A8E7B1E0D2
:1002800001C01D92AA3AB107E1F70E943A090C9405
:10029000B7130C940000DF93CF9300D00F92CDB72B
:1002A000DEB789837B836A8389818A3031F42A812E
:1002B0003B818DE0B9010E944B01E0ECF0E08081D0
:1002C000882F90E0807290700097B9F3E6ECF0E030
:1002D000898180838981992787FD90950F900F9060
:1002E0000F90CF91DF910895DF93CF9300D0CDB7DA
:1002F000DEB79A838983E0ECF0E080818823DCF725
:10030000E6ECF0E08081882F90E00F900F90CF9185
:10031000DF910895DF93CF93CDB7DEB7E5ECF0E042
:100320001082E4ECF0E085E08083E1ECF0E088E12D
:100330008083E2ECF0E086E080838EE091E09093B1
:10034000A7018093A6018EE091E09093A90180938C
:10035000A80180E091E09093A5018093A401CF9142
:10036000DF9108950F931F93DF93CF93CDB7DEB73F
:100370002F970FB6F894DEBF0FBECDBF2091780146
:100380003091790140917A0150917B0160917C011B
:1003900070917D0180917E0190917F0100E010E0DD
:1003A0000E94C70A20918C0130918D0140918E01ED
:1003B00050918F0160919001709191018091920113
:1003C0009091930100EE17E00E94C70A20917801F6
:1003D0003091790180911C0190911D01820F931F32
:1003E000909379018093780120917A0130917B017B
:1003F00080911C0190911D01820F931F90937B01AE
:1004000080937A0120917C0130917D0180911E01C1
:1004100090911F01820F931F90937D0180937C0127
:1004200020917E0130917F0180911E0190911F01EA
:10043000820F931F90937F0180937E01209178011A
:100440003091790140917A0150917B0160917C015A
:1004500070917D0180917E0190917F0100EE1FEFF0
:100460000E94C70A80E090E0A0E8B0E48B879C87F8
:10047000AD87BE876B857C858D859E8520E030E0CD
:100480004AE753E40E94FC0FDC01CB018F8398877D
:10049000A987BA876F81788589859A8520E030E0C1
:1004A00040E85FE30E94561188232CF481E090E03D
:1004B0009E838D833FC06F81788589859A8520E0F2
:1004C0003FEF4FE757E40E94F61018164CF56B8586
:1004D0007C858D859E8520E030E040E251E40E94DD
:1004E000FC0FDC01CB01BC01CD010E94260EDC011A
:1004F000CB019E838D830FC089E190E09C838B8329
:100500008B819C810197F1F79C838B838D819E81E8
:1005100001979E838D838D819E81009769F714C01A
:100520006F81788589859A850E94260EDC01CB0132
:100530009E838D838D819E819A83898389819A810F
:100540000197F1F79A83898380917A0190917B01D9
:10055000803F910508F453C02091780130917901D2
:1005600040917A0150917B0160917C0170917D01F5
:1005700080917E0190917F0100E010E00E94C70A07
:1005800020918C0130918D0140918E0150918F010D
:1005900060919001709191018091920190919301ED
:1005A00000EE17E00E94C70A8BEE90E0909379016D
:1005B0008093780180EF90E090937B0180937A01A3
:1005C000209178013091790140917A0150917B011D
:1005D00060917C0170917D0180917E0190917F01FD
:1005E00000EE1FEF0E94C70A80911C0190911D012F
:1005F000909581959F4F90931D0180931C01809150
:10060000780190917901009709F051C0209178010B
:100610003091790140917A0150917B0160917C0188
:1006200070917D0180917E0190917F0100E010E04A
:100630000E94C70A20918C0130918D0140918E015A
:1006400050918F0160919001709191018091920180
:100650009091930100EE17E00E94C70A1092790171
:100660001092780185E090E090937B0180937A016D
:10067000209178013091790140917A0150917B016C
:1006800060917C0170917D0180917E0190917F014C
:1006900000EE1FEF0E94C70A80911C0190911D017E
:1006A000909581959F4F90931D0180931C0180919F
:1006B0007C0190917D01009721F480E08F878F85E8
:1006C000D8C080917E0190917F0121E08034920713
:1006D00008F453C0209178013091790140917A015A
:1006E00050917B0160917C0170917D0180917E0130
:1006F00090917F0100E010E00E94C70A20918C01D8
:1007000030918D0140918E0150918F016091900147
:1007100070919101809192019091930100EE17E008
:100720000E94C70A8BE391E090937D0180937C0146
:1007300080E491E090937F0180937E012091780185
:100740003091790140917A0150917B0160917C0157
:1007500070917D0180917E0190917F0100EE1FEFED
:100760000E94C70A80911E0190911F01909581956A
:100770009F4F90931F0180931E0120917C01309127
:100780007D0180919201909193018217930708F463
:1007900070C0209178013091790180918C01909105
:1007A0008D018217930708F064C020917A0130917F
:1007B0007B0180918E0190918F012817390708F0F5
:1007C00058C0209178013091790140917A0150917F
:1007D0007B0160917C0170917D0180917E019091FF
:1007E0007F0100E010E00E94C70A20918C01309147
:1007F0008D0140918E0150918F0160919001709117
:100800009101809192019091930100EE17E00E9476
:10081000C70A809192019091930190937D018093FA
:100820007C018091920190919301059690937F01B4
:1008300080937E01209178013091790140917A0175
:1008400050917B0160917C0170917D0180917E01CE
:1008500090917F0100EE1FEF0E94C70A80911E0158
:1008600090911F01909581959F4F90931F018093C8
:100870001E012F960FB6F894DEBF0FBECDBFCF91ED
:10088000DF911F910F910895DF93CF9300D0CDB7E3
:10089000DEB7E4E2F0E01082E5E2F0E08FEF808383
:1008A000E3E2F0E0808182708093A101E3E2F0E076
:1008B000808181708093A0010F900F90CF91DF9184
:1008C00008950F931F93DF93CF9300D0CDB7DEB77A
:1008D000E3E2F0E08081827080938B01E3E2F0E05C
:1008E00080818170809382018091A101882309F029
:1008F00091C080918B01813009F08CC08091A00162
:10090000882309F087C080918201882309F082C082
:1009100080918E0190918F01803F910508F045C034
:1009200020918C0130918D0140918E0150918F0169
:100930006091900170919101809192019091930149
:1009400000E010E00E94C70A20918C0130918D01D7
:1009500080912001882F90E0820F931F90938D014A
:1009600080938C0120918E0130918F018091200124
:10097000882F90E0820F931F90938F0180938E01B8
:1009800020918C0130918D0140918E0150918F0109
:1009900060919001709191018091920190919301E9
:1009A00000EE17E00E94C70A56C420918C013091D6
:1009B0008D0140918E0150918F0160919001709155
:1009C0009101809192019091930100E010E00E94CA
:1009D000C70A8EEB90E090938D0180938C0180EF9D
:1009E00090E090938F0180938E0120918C01309143
:1009F0008D0140918E0150918F0160919001709115
:100A00009101809192019091930100EE17E00E9474
:100A1000C70A21C48091A101813009F091C0809161
:100A20008B01813009F08CC08091A001882309F0EE
:100A300087C080918201813009F082C080918E014F
:100A400090918F01803F910508F045C020918C0165
:100A500030918D0140918E0150918F0160919001F4
:100A600070919101809192019091930100E010E0CA
:100A70000E94C70A20918C0130918D018091200144
:100A8000882F90E0820F931F90938D0180938C01AB
:100A900020918E0130918F0180912001882F90E06C
:100AA000820F931F90938F0180938E0120918C0170
:100AB00030918D0140918E0150918F016091900194
:100AC00070919101809192019091930100EE17E055
:100AD0000E94C70AC0C320918C0130918D014091C2
:100AE0008E0150918F0160919001709191018091E0
:100AF00092019091930100E010E00E94C70A8EEBF2
:100B000090E090938D0180938C0180EF90E0909322
:100B10008F0180938E0120918C0130918D01409145
:100B20008E0150918F01609190017091910180919F
:100B300092019091930100EE17E00E94C70A8BC3C7
:100B40008091A101813009F091C080918B018823AF
:100B500009F08CC08091A001813009F087C080919C
:100B60008201813009F082C080918E0190918F01C5
:100B7000803F910508F045C020918C0130918D0196
:100B800040918E0150918F0160919001709191017F
:100B9000809192019091930100E010E00E94C70AB9
:100BA00020918C0130918D0180912001882F90E05F
:100BB000820F931F90938D0180938C0120918E0161
:100BC00030918F0180912001882F90E0820F931F38
:100BD00090938F0180938E0120918C0130918D0133
:100BE00040918E0150918F0160919001709191011F
:100BF000809192019091930100EE17E00E94C70A44
:100C00002AC320918C0130918D0140918E01509129
:100C10008F0160919001709191018091920190916A
:100C2000930100E010E00E94C70A8EEB90E09093E1
:100C30008D0180938C0180EF90E090938F018093E1
:100C40008E0120918C0130918D0140918E01509147
:100C50008F0160919001709191018091920190912A
:100C6000930100EE17E00E94C70AF5C28091A1012E
:100C7000882309F091C080918B01882309F08CC0F2
:100C80008091A001813009F087C080918201882382
:100C900009F082C080918E0190918F01803F910573
:100CA00008F045C020918C0130918D0140918E015A
:100CB00050918F016091900170919101809192010A
:100CC0009091930100E010E00E94C70A20918C01EE
:100CD00030918D0180912001882F90E0820F931F29
:100CE00090938D0180938C0120918E0130918F0122
:100CF00080912001882F90E0820F931F90938F01A5
:100D000080938E0120918C0130918D0140918E0154
:100D100050918F01609190017091910180919201A9
:100D20009091930100EE17E00E94C70A94C22091AF
:100D30008C0130918D0140918E0150918F01609115
:100D4000900170919101809192019091930100E046
:100D500010E00E94C70A8EEB90E090938D01809383
:100D60008C0180EF90E090938F0180938E01209111
:100D70008C0130918D0140918E0150918F016091D5
:100D8000900170919101809192019091930100EEF8
:100D900017E00E94C70A5FC28091A101813009F06B
:100DA00093C080918B01882309F08EC08091A001AF
:100DB000882309F089C080918201882309F084C0CA
:100DC00080918C0190918D018333910508F449C085
:100DD00020918C0130918D0140918E0150918F01B5
:100DE0006091900170919101809192019091930195
:100DF00000E010E00E94C70A20918C0130918D0123
:100E000080912001882F90E0A901481B590BCA014D
:100E100090938D0180938C0120918E0130918F01F0
:100E200080912001882F90E0A901481B590BCA012D
:100E300090938F0180938E0120918C0130918D01D0
:100E400040918E0150918F016091900170919101BC
:100E5000809192019091930100EE17E00E94C70AE1
:100E6000FAC120918C0130918D0140918E015091F9
:100E70008F01609190017091910180919201909108
:100E8000930100E010E00E94C70A10928D011092B9
:100E90008C0182E390E090938F0180938E012091EA
:100EA0008C0130918D0140918E0150918F016091A4
:100EB000900170919101809192019091930100EEC7
:100EC00017E00E94C70AC7C18091A101882309F0D9
:100ED00093C080918B01882309F08EC08091A0017E
:100EE000882309F089C080918201813009F084C093
:100EF00080918C0190918D018333910508F449C054
:100F000020918C0130918D0140918E0150918F0183
:100F10006091900170919101809192019091930163
:100F200000E010E00E94C70A20918C0130918D01F1
:100F300080912001882F90E0A901481B590BCA011C
:100F400090938D0180938C0120918E0130918F01BF
:100F500080912001882F90E0A901481B590BCA01FC
:100F600090938F0180938E0120918C0130918D019F
:100F700040918E0150918F0160919001709191018B
:100F8000809192019091930100EE17E00E94C70AB0
:100F900062C120918C0130918D0140918E01509160
:100FA0008F016091900170919101809192019091D7
:100FB000930100E010E00E94C70A10928D01109288
:100FC0008C0182E390E090938F0180938E012091B9
:100FD0008C0130918D0140918E0150918F01609173
:100FE000900170919101809192019091930100EE96
:100FF00017E00E94C70A2FC18091A101882309F040
:1010000093C080918B01813009F08EC08091A00146
:10101000813009F089C080918201813009F084C05B
:1010200080918C0190918D018333910508F449C022
:1010300020918C0130918D0140918E0150918F0152
:101040006091900170919101809192019091930132
:1010500000E010E00E94C70A20918C0130918D01C0
:1010600080912001882F90E0A901481B590BCA01EB
:1010700090938D0180938C0120918E0130918F018E
:1010800080912001882F90E0A901481B590BCA01CB
:1010900090938F0180938E0120918C0130918D016E
:1010A00040918E0150918F0160919001709191015A
:1010B000809192019091930100EE17E00E94C70A7F
:1010C000CAC020918C0130918D0140918E015091C8
:1010D0008F016091900170919101809192019091A6
:1010E000930100E010E00E94C70A10928D01109257
:1010F0008C0182E390E090938F0180938E01209188
:101100008C0130918D0140918E0150918F01609141
:10111000900170919101809192019091930100EE64
:1011200017E00E94C70A97C08091A101813009F0A1
:1011300092C080918B01813009F08DC08091A00117
:10114000813009F088C080918201882309F083C032
:1011500080918C0190918D018333910508F449C0F1
:1011600020918C0130918D0140918E0150918F0121
:101170006091900170919101809192019091930101
:1011800000E010E00E94C70A20918C0130918D018F
:1011900080912001882F90E0A901481B590BCA01BA
:1011A00090938D0180938C0120918E0130918F015D
:1011B00080912001882F90E0A901481B590BCA019A
:1011C00090938F0180938E0120918C0130918D013D
:1011D00040918E0150918F01609190017091910129
:1011E000809192019091930100EE17E00E94C70A4E
:1011F00032C020918C0130918D0140918E0150912F
:101200008F01609190017091910180919201909174
:10121000930100E010E00E94C70A10928D01109225
:101220008C0182E390E090938F0180938E01209156
:101230008C0130918D0140918E0150918F01609110
:10124000900170919101809192019091930100EE33
:1012500017E00E94C70A80918B018093A1018091C1
:1012600082018093A0010F900F90CF91DF911F9189
:101270000F9108950F931F93DF93CF93CDB7DEB7F0
:1012800060970FB6F894DEBF0FBECDBF0E94440436
:101290000E94CC0C85E790E09093790180937801CF
:1012A0008AE790E090937B0180937A018DE990E04A
:1012B00090937D0180937C0182EA90E090937F017E
:1012C00080937E01209178013091790140917A01DB
:1012D00050917B0160917C0170917D0180917E0134
:1012E00090917F0100EE1FEF0E94C70A8FE590E00A
:1012F00090938D0180938C0181E990E090938F0110
:1013000080938E01109291011092900183E090E001
:10131000909393018093920120918C0130918D01E3
:1013200040918E0150918F016091900170919101D7
:10133000809192019091930100EE17E00E94C70AFC
:1013400078C00E9461040E94B2018093210180E074
:1013500090E0A8ECB2E48B879C87AD87BE876B8555
:101360007C858D859E8520E030E04AE753E40E942D
:10137000FC0FDC01CB018F839887A987BA876F8127
:10138000788589859A8520E030E040E85FE30E9417
:10139000561188232CF481E090E09E838D833FC01A
:1013A0006F81788589859A8520E03FEF4FE757E484
:1013B0000E94F61018164CF56B857C858D859E85F0
:1013C00020E030E040E251E40E94FC0FDC01CB0160
:1013D000BC01CD010E94260EDC01CB019E838D83D2
:1013E0000FC089E190E09C838B838B819C81019766
:1013F000F1F79C838B838D819E8101979E838D83E2
:101400008D819E81009769F714C06F8178858985E9
:101410009A850E94260EDC01CB019E838D838D81EF
:101420009E819A83898389819A810197F1F79A83B2
:10143000898380912101882309F083CF81E090E0A6
:10144000988B8F8709C082E291E00E94B90C8F854A
:1014500098890196988B8F878F85988923E08133AF
:10146000920788F384E291E00E94B90C80E090E05A
:1014700060960FB6F894DEBF0FBECDBFCF91DF915F
:101480001F910F9108959C01909334018093330133
:10149000149886E388B91398139A149A2115310584
:1014A00071F480EF90E09093300180932F0180E4FD
:1014B00091E0909332018093310188E432C0213071
:1014C000310571F480E491E09093300180932F0115
:1014D00080EF90E0909332018093310188EE21C03B
:1014E0002230310571F480EF90E0909330018093C9
:1014F0002F0180E491E0909332018093310188E8DC
:1015000010C02330310581F480E491E090933001E4
:1015100080932F0180EF90E090933201809331010E
:1015200088E288B91398139A14988AE288B91398B4
:10153000139A149A18B81398139A18B81398139A00
:1015400080912F0190913001019798B901961398DD
:10155000139A815088B91398139A14988BE288B91A
:101560001398139A149A18B81398139A18B81398D2
:10157000139A8091310190913201019798B90196A7
:101580001398139A815088B91398139A0895EF927B
:10159000FF920F931F93DF93CF93CDB7DEB72897BA
:1015A0000FB6F894DEBF0FBECDBFF22F2983E32F15
:1015B0003A834B835C83362F6D83272F7E838F8303
:1015C00098877801AB81BC81062F172F6F817885B2
:1015D00014988AE288B91398139A149AE8B9139860
:1015E000139AF8B91398139AB8B91398139AA8B91B
:1015F0001398139A14988BE288B91398139A149A33
:1016000028B91398139A38B91398139A78B913987C
:10161000139A68B91398139A14988CE288B913989E
:10162000139A149A2F2F3E2FC901AC010DC0F8B8A0
:101630001398139AE8B81398139A2F5F3F4F6217C5
:101640007307A8F74F5F5F4FA417B50710F0980115
:10165000F6CF28960FB6F894DEBF0FBECDBFCF9160
:10166000DF911F910F91FF90EF900895EF92FF92FD
:101670000F931F93DF93CF93CDB7DEB728970FB6A5
:10168000F894DEBF0FBECDBFF22F2983E32F3A833C
:101690004B835C83362F6D83272F7E838F839887C0
:1016A000D8010B811C81E62EF72E6F817885149866
:1016B0008AE288B91398139A149AE8B91398139A7E
:1016C000F8B91398139A18B91398139A08B913987C
:1016D000139A14988BE288B91398139A149A28B91C
:1016E0001398139A38B91398139A78B91398139AD0
:1016F00068B91398139A14988CE288B91398139ABE
:10170000149A2F2F3E2FC901AC0114C011968C9151
:10171000119788B91398139A12968C91129788B9D9
:1017200014961398139A2F5F3F4F6217730770F741
:101730004F5F5F4F0417150710F09701F6CF2896FB
:101740000FB6F894DEBF0FBECDBFCF91DF911F91D2
:101750000F91FF90EF9008950F931F93DF93CF9316
:10176000CDB7DEB728970FB6F894DEBF0FBECDBF5A
:101770001092360110923501109238011092370103
:1017800020912F0130913001215030408091310162
:101790009091320101971A821982422F3C832B8348
:1017A0001E821D8298878F8300913B0110913C011E
:1017B00029813A815C816D817E8198850E94C70A6A
:1017C00028960FB6F894DEBF0FBECDBFCF91DF9144
:1017D0001F910F9108956F927F928F929F92AF9277
:1017E000BF92CF92DF92EF92FF920F931F93CF930E
:1017F000DF93982F009135011091360124E0E22EFD
:10180000F12CE00EF11E609037017090380180528B
:101810008F3508F09FC0E301279685E0989F9001DF
:1018200011242452304014988BE288B91398139AEB
:10183000149A78B81398139A68B81398139AD8B969
:101840001398139AC8B91398139AC0903901D0907D
:101850003A01A0903B01B0903C01A8019AE2892E88
:101860008CE2982E36C0149888B81398139A149A5C
:1018700058B91398139A48B91398139A58B91398EA
:10188000139A48B91398139A149898B81398139AFE
:10189000149AF901B491B30191E014C0A92FAB23BC
:1018A00011F48B2D01C08D2D88B91398139AAA239A
:1018B00011F48A2D01C08C2D88B91398139A6F5F8B
:1018C0007F4F990FC617D70748F72F5F3F4F4F5FDE
:1018D0005F4FE416F50638F614988AE288B9139833
:1018E000139A149A58B91398139A48B91398139ADB
:1018F00058B91398139A48B91398139A14988CE20C
:1019000088B91398139A149AC30107C0B8B81398EA
:10191000139AA8B81398139A0196C817D907B0F765
:1019200098012A5F3F4F3093360120933501809113
:101930002F01909130012817390760F0109236017D
:101940001092350188E090E0680E791E709238019F
:1019500060923701DF91CF911F910F91FF90EF902F
:10196000DF90CF90BF90AF909F908F907F906F90BF
:1019700008951F93CF93DF93EC0110E003C00E9402
:10198000EB0B1F5FFE01E10FF11D80818823B9F78A
:10199000DF91CF911F91089585B7806885BF85B786
:1019A000806885BF8FE781B98FEF87B90E94D90C16
:1019B0000895129888EE93E02CE231E0F901319716
:1019C000F1F70197D9F7129A88EE93E02CE231E013
:1019D000F9013197F1F70197D9F7149A139A159AEB
:1019E00010981198169A149888E288B91398139A47
:1019F000149A149881E188B91398139A149A88E577
:101A000092E02CE231E0F9013197F1F70197D9F733
:101A100014988BEC88B91398139A149A81E088B9BA
:101A20001398139A149880EC88B91398139A149AFF
:101A300086E288B91398139A88E088B91398139AA4
:101A4000149881EC88B91398139A149A80E188B994
:101A50001398139A149885EC88B91398139A149ACA
:101A600085E388B91398139A8EE388B91398139A6B
:101A7000149886E388B91398139A149A88E488B95D
:101A80001398139A149880EB88B91398139A149AA0
:101A90008AE488B91398139A149881EB88B913983B
:101AA000139A149A18B81398139A8BE188B913985B
:101AB000139A149886EB88B91398139A149AEBE644
:101AC000F1E0819188B91398139A41E0EF36F40759
:101AD000C1F7149887EC88B91398139A149A85EB78
:101AE00088B91398139A149886EF88B91398139AA3
:101AF000149AE7E6F1E0819188B91398139A81E08E
:101B0000EA36F807C1F7149882EF88B91398139A48
:101B1000149A18B81398139A149886E288B91398EF
:101B2000139A149A81E088B91398139A14988AE347
:101B300088B91398139A149A85E588B91398139A5B
:101B4000149880EE88B91398139A149AE7E5F1E097
:101B5000819188B91398139A41E0E636F407C1F7EA
:101B6000149881EE88B91398139A149AE7E4F1E077
:101B7000819188B91398139A81E0E635F807C1F787
:101B800014988AE288B91398139A149AE2E4F1E05F
:101B9000819188B91398139A41E0E634F407C1F7AC
:101BA00014988BE288B91398139A149AEDE3F1E034
:101BB000819188B91398139A81E0E134F807C1F74D
:101BC000149884E388B91398139A149A149884EBA0
:101BD00088B91398139A149A18B81398139A1498EA
:101BE00087EB88B91398139A149A87E088B91398E9
:101BF000139A14988CE288B91398139A149A20E0D7
:101C000030E010C018B81398139A18B81398139AA4
:101C1000019641E080349407A9F72F5F3F4F203FA2
:101C2000310519F080E090E0EDCF149889E288B991
:101C30001398139A149A84EF91E02CE231E0F901A1
:101C40003197F1F70197D9F7119A0895EF92FF9222
:101C50000F931F937B018C0120E030E040E05FE4B4
:101C60000E94261188238CF0C801B70120E030E0E3
:101C700040E05FE40E949E0F0E9486119B01AC0130
:101C8000205030404040504806C0C801B7010E9473
:101C900086119B01AC01B901CA011F910F91FF9000
:101CA000EF900895A0E0B0E0E8E5FEE00C9480132A
:101CB000DC012B01FA019C91923008F439C1EB014F
:101CC0008881823008F433C1943069F4843009F09B
:101CD0002FC111969C9111978981981709F428C1F9
:101CE000A0E7B1E025C1843009F421C18230A9F414
:101CF000923009F01DC19A01AD0188E0EA01099016
:101D0000AE01E90109929E018150C1F7E20189818A
:101D100011969C918923818308C1923009F407C1EF
:101D200012962D903C901397EB018A819B8114961B
:101D3000AD90BD90CD90DC901797EC80FD800E812A
:101D40001F819101281B390BB90137FF04C0662799
:101D50007727621B730B603271050CF061C012169D
:101D600013066CF537014801062E04C0969487943B
:101D7000779467940A94D2F721E030E040E050E095
:101D800004C0220F331F441F551F6A95D2F72150FC
:101D90003040404050402E213F2140235123211507
:101DA00031054105510521F021E030E040E050E0EF
:101DB00079018A01E628F728082919293CC0232B34
:101DC000D1F1260E371E35014601062E04C0969429
:101DD0008794779467940A94D2F721E030E040E04A
:101DE00050E004C0220F331F441F551F6A95D2F7DD
:101DF00021503040404050402A213B214C215D2160
:101E0000211531054105510521F021E030E040E088
:101E100050E059016A01A628B728C828D9280BC064
:101E2000821593052CF01C01AA24BB24650103C074
:101E3000EE24FF24870111969C91D20111968C917A
:101E4000981709F445C0992339F0A80197012A1978
:101E50003B094C095D0906C0A60195012E193F09F1
:101E6000400B510B57FD08C011823382228224831C
:101E70003583468357831DC081E08183338222826C
:101E800088279927DC01821B930BA40BB50B848355
:101E90009583A683B7830DC0220F331F441F551FA0
:101EA000248335834683578382819381019793836B
:101EB00082832481358146815781DA01C9010197E6
:101EC000A109B1098F5F9F4FAF4FBF4328F30BC0EC
:101ED000918333822282EA0CFB1C0C1D1D1DE482BF
:101EE000F5820683178383E08083248135814681D0
:101EF000578157FF1AC0C901AA2797FDA095BA2F8D
:101F000081709070A070B070569547953795279561
:101F1000822B932BA42BB52B84839583A683B78325
:101F200082819381019693838283DF0101C0D20174
:101F3000CD01CDB7DEB7E2E10C949C13A0E2B0E096
:101F4000E4EAFFE00C948C1369837A838B839C838F
:101F50002D833E834F835887E9E0EE2EF12CEC0E63
:101F6000FD1ECE010196B7010E94AF128E010F5ED9
:101F70001F4FCE010596B8010E94AF128A8991E0E9
:101F800089278A8BC701B801AE01475E5F4F0E9467
:101F9000520E0E94DA11A096E6E00C94A813A0E27B
:101FA000B0E0E5EDFFE00C948C1369837A838B83BA
:101FB0009C832D833E834F835887F9E0EF2EF12CCD
:101FC000EC0EFD1ECE010196B7010E94AF128E01EC
:101FD0000F5E1F4FCE010596B8010E94AF12C701D8
:101FE000B801AE01475E5F4F0E94520E0E94DA11A7
:101FF000A096E6E00C94A813A0E2B0E0E2E0F0E1E5
:102000000C94801369837A838B839C832D833E8316
:102010004F835887CE010196BE01675F7F4F0E94B4
:10202000AF12CE010596BE016F5E7F4F0E94AF12C8
:102030009985923088F089898230C8F0943019F4FB
:10204000823051F404C0843029F4923081F480E766
:1020500091E0C6C0923049F420E09A858A899813AD
:1020600021E02A87CE010996BBC0823049F420E0E6
:102070009A858A89981321E02A8BCE014196B0C0B7
:102080002D843E844F8458886D887E888F88988CF4
:10209000EE24FF248701AA24BB24650140E050E020
:1020A00060E070E0E0E0F0E0C10181709070892BA9
:1020B000E9F0E60CF71C081D191D9A01AB012A0D69
:1020C0003B1D4C1D5D1D80E090E0A0E0B0E0E614FB
:1020D000F7040805190520F481E090E0A0E0B0E0E5
:1020E000BA01A901480F591F6A1F7B1FAA0CBB1C0C
:1020F000CC1CDD1C97FE08C081E090E0A0E0B0E0C1
:10210000A82AB92ACA2ADB2A3196E032F10549F019
:10211000660C771C881C991C569447943794279416
:10212000C3CFFA85EA892B893C898B859C85280F4A
:10213000391F2E5F3F4F17C0CA0181709070892BE5
:1021400061F016950795F794E79480E090E0A0E0A1
:10215000B0E8E82AF92A0A2B1B2B76956795579544
:1021600047952F5F3F4F77FDE7CF0CC0440F551FBA
:10217000661F771F17FD4160EE0CFF1C001F111F2B
:1021800021503040403090E0590790E0690790E4DA
:10219000790760F32B8F3C8FDB01CA018F7790703A
:1021A000A070B07080349105A105B10561F447FDC0
:1021B0000AC0E114F1040105110529F0405C5F4FEC
:1021C0006F4F7F4F40781A8EFE1711F081E08A8F93
:1021D0004D8F5E8F6F8F78A383E0898FCE014996F4
:1021E0000E94DA11A096E2E10C949C13A8E1B0E001
:1021F000ECEFF0E10C948C1369837A838B839C83DE
:102200002D833E834F83588789E0E82EF12CEC0E16
:10221000FD1ECE010196B7010E94AF128E010F5E26
:102220001F4FCE010596B8010E94AF1289858230FA
:1022300040F08989823028F0C701B8010E94271335
:1022400001C08FEF6896E6E00C94A813A8E1B0E017
:10225000ECE2F1E10C948C1369837A838B839C8389
:102260002D833E834F83588789E0E82EF12CEC0EB6
:10227000FD1ECE010196B7010E94AF128E010F5EC6
:102280001F4FCE010596B8010E94AF12898582309A
:1022900040F08989823028F0C701B8010E942713D5
:1022A00001C08FEF6896E6E00C94A813A8E1B0E0B7
:1022B000ECE5F1E10C948C1369837A838B839C8326
:1022C0002D833E834F83588789E0E82EF12CEC0E56
:1022D000FD1ECE010196B7010E94AF128E010F5E66
:1022E0001F4FCE010596B8010E94AF12898582303A
:1022F00040F08989823028F0C701B8010E94271375
:1023000001C081E06896E6E00C94A813ACE0B0E070
:10231000ECE8F1E10C94901369837A838B839C83BE
:10232000CE010196BE016B5F7F4F0E94AF128D817F
:10233000823061F1823050F1843021F48E81882323
:1023400051F12EC02F81388537FD20C06E812F318D
:1023500031051CF06623F9F023C08EE190E0821B6A
:10236000930B29853A854B855C8504C05695479526
:10237000379527958A95D2F76623B1F05095409509
:10238000309521953F4F4F4F5F4F0EC020E030E01A
:1023900040E050E009C02FEF3FEF4FEF5FE704C090
:1023A00020E030E040E050E8B901CA012C96E2E0BC
:1023B0000C94AC13DF92EF92FF920F931F93FC01EA
:1023C000E480F58006811781D1808081823048F4D5
:1023D00080E090E0A0E1B0E0E82AF92A0A2B1B2B6C
:1023E000A5C0843009F49FC0823021F4EE24FF247C
:1023F000870105C0E114F1040105110519F4E0E0BD
:10240000F0E096C0628173819FEF623879070CF02B
:102410005BC022E83FEF261B370B2A3131052CF039
:1024200020E030E040E050E02AC0B801A701022ED1
:1024300004C076956795579547950A94D2F781E041
:1024400090E0A0E0B0E004C0880F991FAA1FBB1F56
:102450002A95D2F70197A109B1098E219F21A023C6
:10246000B1230097A105B10521F081E090E0A0E043
:10247000B0E09A01AB01282B392B4A2B5B2BDA01F8
:10248000C9018F779070A070B07080349105A1055C
:10249000B10539F427FF09C0205C3F4F4F4F5F4F14
:1024A00004C0215C3F4F4F4F5F4FE0E0F0E0203031
:1024B000A0E03A07A0E04A07A0E45A0710F0E1E0E4
:1024C000F0E079018A0127C06038710564F5FB01ED
:1024D000E158FF4FD801C7018F779070A070B0709E
:1024E00080349105A105B10539F4E7FE0DC080E403
:1024F00090E0A0E0B0E004C08FE390E0A0E0B0E0A6
:10250000E80EF91E0A1F1B1F17FF05C01695079539
:10251000F794E794319687E016950795F794E7943A
:102520008A95D1F705C0EE24FF248701EFEFF0E094
:102530006E2F679566276795902F9F77D794DD2438
:10254000D7948E2F8695492F462B582F5D29B7019A
:10255000CA011F910F91FF90EF90DF900895FC0149
:10256000DB01408151812281622F6F7770E0221F51
:102570002227221F9381892F880F822B282F30E05A
:10258000991F9927991F11969C9311972115310531
:10259000A9F5411551056105710511F482E037C0B7
:1025A00082E89FEF13969C938E9312979A01AB014A
:1025B00067E0220F331F441F551F6A95D1F783E050
:1025C0008C930DC0220F331F441F551F12968D91FF
:1025D0009C911397019713969C938E93129720309A
:1025E00080E0380780E0480780E4580758F31496E5
:1025F0002D933D934D935C93179708952F3F31058D
:1026000079F4411551056105710519F484E08C9345
:10261000089564FF03C081E08C9312C01C9210C027
:102620002F57304013963C932E93129783E08C9350
:1026300087E0440F551F661F771F8A95D1F7706496
:1026400014964D935D936D937C93179708951F9304
:10265000DC01FB019C91923008F447C080818230FC
:1026600008F443C0943051F411961C91843099F5CC
:102670008181682F70E0611B71093FC0843021F0B7
:10268000923031F48230B9F18181882389F12DC0F3
:1026900011961C9111978230F1F081811817D9F4AD
:1026A00012962D913C911397828193818217930703
:1026B00094F028173907BCF014968D919D910D90D8
:1026C000BC91A02D24813581468157812817390777
:1026D0004A075B0718F4112341F00AC082179307D9
:1026E000A407B50740F4112319F061E070E005C0BC
:1026F0006FEF7FEF02C060E070E0CB011F910895A3
:102700002F923F924F925F926F927F928F929F9201
:10271000AF92BF92CF92DF92EF92FF920F931F93EF
:10272000CF93DF93CDB7DEB7CA1BDB0B0FB6F894A0
:10273000DEBF0FBECDBF09942A88398848885F84E0
:102740006E847D848C849B84AA84B984C884DF8051
:10275000EE80FD800C811B81AA81B981CE0FD11D35
:102760000FB6F894DEBF0FBECDBFED010895F8940B
:02277000FFCF99
:1027720000000001000000000000740100000000E1
:102782000002000000004B010000000001000100F7
:102792001401200047616D65206F7665722100F09B
:1027A200004001000000000000FFFF0000000001E7
:1027B2003F00000000EF000025270510093A784D80
:1027C20005180D383A1F001F1A180A0F06458732DE
:1027D2000A070207050000010000000A8227000024
:0827E2000000000000000000EF
:00000001FF
